:1000000010C02AC029C028C05CC026C025C024C09A
:1000100023C022C021C020C01FC01EC01DC01CC0E4
:100020001BC011241FBECFE5D2E0DEBFCDBF10E064
:10003000A0E6B0E0EAE9F1E002C005900D92A23638
:10004000B107D9F720E0A2E6B0E001C01D92A436C6
:10005000B207E1F797D09FC0D3CF8FEF8ABB83E081
:1000600087BB81B5866081BD81B5806481BD789490
:1000700085B7877E806185BF379880B18F6080B9F2
:1000800008959C018BBB98B322273170892F8E7FF6
:10009000832B88BB0895C19A8FE097E20197F1F70F
:1000A00000C00000C198089586B3847090E0089560
:1000B00021B530E0287C87729927282B392B21BD68
:1000C00008951F920F920FB60F9211242F933F9312
:1000D0004F935F936F937F938F939F93AF93BF9350
:1000E000EF93FF93209162003091630081E090E0F4
:1000F00002C0880F991F2A95E2F7C3DFCCDF8091F9
:100100006200909163000196909363008093620077
:100110008091620090916300099724F0109263002F
:1001200010926200B29B0CC08091600090916100BF
:10013000019731F086E090E0BBDF81E090E00DC0F8
:10014000B2990FC08091600090916100029749F0D0
:1001500085E090E0ADDF82E090E0909361008093D5
:100160006000FF91EF91BF91AF919F918F917F912F
:100170006F915F914F913F912F910F900FBE0F9014
:100180001F9018956ADF85B7806285BF889585B70F
:0A0190008F7D85BFF8CFF894FFCFF4
:02019A00010062
:00000001FF
